:100000002807002025010000210100002101000037
:1000100000000000000000000000000000000000E0
:1000200000000000000000000000000021010000AE
:10003000000000000000000021010000210100007C
:10004000210100002101000021010000290D000014
:100050002101000021010000210100002101000018
:100060002101000021010000210100002101000008
:1000700021010000210100002101000021010000F8
:1000800021010000210100002101000021010000E8
:10009000210100000000000000000000210100001C
:1000A00021010000210100002101000021010000C8
:1000B0000000000010B5064C2378002B07D1054B3B
:1000C000002B02D0044800E000BF0123237010BDC4
:1000D0006C00002000000000B0430000084B10B589
:1000E000002B03D00749084800E000BF0748036819
:1000F000002B00D110BD064B002BFBD09847F9E731
:100100000000000070000020B0430000B043000079
:100110000000000010B5014B984710BDC904000055
:10012000FEE700002148224970B5884204D0002330
:10013000204CCA18A24232D300211F4B1F4A9342BF
:1001400031D3FF211E4B1F4A8B43936002220C25A3
:10015000082430261C4B1D485A62C378FC398B4357
:100160001343C370C378AB432343C370184B987BCE
:10017000B0430600202030439873987BA843044383
:100180009C73987B884302439A738023114A516879
:100190000B435360104B9847104B9847FEE7C558E8
:1001A00004331560C5E702C3C9E7C046B043000089
:1001B000000000206C0000206C00002028030020BC
:1001C0000000000000ED00E0FC7000410050004124
:1001D0000048004100400041252100004D1300006F
:1001E00070B51F244209C0B20440FF234D1C09D141
:1001F0001A40D201144BA218D218137802318B4343
:10020000137070BD01251340104ADB019B181E19A5
:1002100040363278AA432A4332706208284209D015
:100220000F209A1830321378090103401943C9B2DC
:100230001170E6E70F209B1830331A780140824393
:1002400011431970DDE7C0464044004100440041BD
:100250001F22430910401E3A8240012916D000296E
:1002600002D0022920D07047C021DB01C9055918EE
:100270004A60802190B2C905014313481B18996256
:10028000110CC02212060A439A62ECE7C021DB017E
:10029000C90559184A600D4990B201430A481B1814
:1002A0009962110C0A4AEEE7C021DB01C905591811
:1002B0008A60802190B2C90501430348120C1B18C3
:1002C0009962C0210906DEE70044004100000240B7
:1002D000000002C0F8B5C025104F01212820ED050F
:1002E0000F4CB8472E0080232100042094365B0079
:1002F00008353360C831EB670A78C93402430A70A5
:10030000253033600121B8478022042192003260F9
:10031000EA6723780B4323703260F8BD5102000076
:10032000004400418023044A5B02116A0B431362BC
:10033000024A034B5A807047000400401E400000F0
:10034000000C004010B5054B9847054B984700221C
:1003500004490548054B984710BDC04625030000D9
:10036000D502000000400042C40200200106000047
:1003700070B5094C0426220048321378074DB34368
:100380001370493406490820A84723780549B34328
:1003900023700920A84770BD00440041E10100001E
:1003A00002000800020009000423054A116A0B43F9
:1003B0001362044B044A5A80044A5A807047C0466C
:1003C00000040040000C00401440000013400000F6
:1003D00010B5044B98470449044B05489847054B12
:1003E000984710BDA903000000080042490700001B
:1003F000E00200207103000010B50321034C00202F
:10040000A04703490120A04710BDC046E1010000FC
:10041000030001000823044A116A0B431362034AD4
:10042000034B5A807047C04600040040154000004E
:10043000000C004010B5054B984700220449054BBD
:1004400005489847054B984710BDC0461504000065
:10045000000C00428D090000D4020020F9030000C6
:1004600010B500210220034B984703490220034B9B
:10047000984710BD5102000001000200E101000098
:100480008023044ADB02116A0B431362024A034BC6
:100490005A8070470004004021400000000C0040DA
:1004A00010B5044B98470449044B05489847054B41
:1004B000984710BD8104000000480042B9060000C2
:1004C000C802002061040000F8B53F4BC0269847E1
:1004D0001023F6053D4C3E4F736102210420B847BE
:1004E00022000125443213780221AB4313702023EC
:1004F00005207361B8472200453213780221AB43CF
:1005000013708023DB0073610A20B84722004A324F
:1005100013782900AB4313700F20B84780212300C4
:100520000420090271604F331A7802431A70B161D6
:100530001A782900AA431A700E30B8478021230088
:100540000420C902716052331A7802431A70716133
:100550001A780221AA431A7080231B0373610F309B
:10056000B8472200533213780221AB431370802323
:100570005B0373611420B8472200543213780221C0
:10058000AB43137080239B03152073615534B84728
:100590002378AB4323700F4B98470F4B98470F4B73
:1005A000984720210E4A93690B4393610D4A0E4BE5
:1005B0005A800E4B98470E4902000E4B0E48984742
:1005C0000E4B9847F8BDC046A50B00000044004103
:1005D0005102000045030000D10300003504000073
:1005E0000004004004400000000C0040230D000007
:1005F000001400405508000000030020A104000082
:1006000010B5014B984710BDD50A000010B5024B3C
:100610009847002010BDC046F10A0000F0B585B033
:100620000393164B050001910292984786B207008A
:100630003400A31B9BB200932800114B98470199EB
:100640002800104B98470028F9D00F4B019928003B
:100650009847029B009A9854012F05D91300029ADB
:10066000000A944663445870039A33199BB2A2421D
:1006700002D8200005B0F0BD1C00DAE7FD0A00003A
:10068000290B00001D0B0000410B000010B5024CAF
:10069000A047002010BDC046550B0000EFF31083AB
:1006A000036072B6BFF35F8F7047BFF35F8F03685D
:1006B00083F310887047000010B5044B040098477E
:1006C000002801D16060A06010BDC046210C000070
:1006D000044B10B51C68044B9847044B01002000E4
:1006E000984710BD88000020810B00009D0B000082
:1006F0001FB514001438828B01AB1A80054A039190
:100700005A801900044B02949847002800D1200019
:1007100004B010BD0080FFFF111100001FB51400D0
:100720001438828B01AB1A80054A03915A80190054
:10073000044B02949847002800D1200004B010BD5B
:100740000180FFFF1111000010B5054B0400984710
:10075000002803D1034BA361034B636110BDC04666
:10076000F11000001D070000F106000010B5014B5C
:10077000984710BD0111000080238905DB00890D19
:100780001A400A438283100070471430086000202A
:10079000704710B50368984710BD0000F7B50568AD
:1007A000002D02D1114B9847F7BD01262C000027E0
:1007B0008B680093B31A0193A6686368B4469342AA
:1007C0000DD863449B1A009EB3420CD223682700C5
:1007D000002B02D13800064BE5E71C00ECE7019E38
:1007E000F3186344EFE7A542F4D1DBE7C109000049
:1007F000C9090000F8B5036905005E1C037E446961
:100800000661DB0702D4037E9B0717D502232A7EED
:1008100013432B76F8BD2F0014370C4B3800984744
:10082000237C012B05D16660320021003800084B83
:1008300098476F69E368200098473C00002CE9D096
:100840006368A268F31A9342E5D2E3E7D109000096
:100850009D07000010B5044B040098470020034B8F
:100860002061236010BDC046950C0000F507000014
:1008700070B5064B05009847041E04D12800044BB0
:100880009847200070BD11204042FBE7090D000091
:10089000D90C0000F0B507000125037E14372B4367
:1008A000037685B00400144B38000E009847019081
:1008B000002806D0237EAB432376133D280005B0E5
:1008C000F0BD22693100726002260C4B3800984757
:1008D000237EAB432376237E019D3342EED003A8D3
:1008E000074B9847237E2000B3432376054B984758
:1008F00003A8054B9847E1E7B10900009D070000F8
:100900009D060000210D0000AB060000F7B50400B5
:100910000F0001922500083528000C4EB047002832
:10092000F8D00024395D2800094B98472800B047CB
:100930000028FBD0019B01349C42F3D32800054BD7
:1009400098470028FAD02000FEBDC046D110000014
:10095000C1100000DB100000F7B507000E000024F6
:1009600001923D0008352800064B98470028F8D032
:10097000054B28009847019B305501349C42F0D329
:100980002000FEBDE5100000C910000010B5054BA9
:10099000040008309847002803D1034B6360034BE1
:1009A000236010BDB1100000590900000D090000BE
:1009B0000068002800D170478842F9D10120FAE789
:1009C00003680B600160704703680B60016070474B
:1009D0000368002B01D01A680260180070470000FD
:1009E000054B02001968002901D1044919601868F3
:1009F00082181A607047C0468C000020280700202B
:100A0000437EDB09FCD170470369064A10B51340E9
:100A1000F82209025201114019430161024B984723
:100A200010BDC046FFE0FFFF010A0000F8B5244BEF
:100A300004001A68E0235701DB001F40214B5201DC
:100A40001B68214EDB0E1343DBB21F430D00B04782
:100A500023789B0703D5002320002370B047012390
:100A600020002370B0471C235D43184B27855D1978
:100A7000AB78AA7E6370EB782000A3702B79E370CB
:100A80002B7C2375EB8AA3842B8BE38423002A33EE
:100A90001A70EB88A380B047EB6820002361B04751
:100AA0002B7A20002372B0476B8A2000A383B047C3
:100AB000AB8A20002384B0476B7800202370F8BDF8
:100AC0002460800020608000010A0000F0290000FE
:100AD0000020704710B5044B01600C009847034B91
:100AE00001002000984710BDD10A00002D0A000027
:100AF0000223026811780B431370704710B5046825
:100B0000054B20009847A0888006800F0338431EBD
:100B10009841013010BDC046010A00000368187EEC
:100B20000123184070470000022310B50068027BC3
:100B300013430373014B984710BDC046010A0000E0
:100B400010B50468024B20009847608B80B210BD3E
:100B5000010A000070B515001F2204000068114052
:100B60000369934319430161034B984729002068A7
:100B7000024B984770BDC046010A0000090A0000F8
:100B80000300F0204000584310B5034B023003210E
:100B900098476423584310BD391E00000139FDD821
:100BA00070470000022310B5064A51680B4353609A
:100BB000054B9847054B9847054B9847FF20054B39
:100BC000984710BD004000416D0C00006512000008
:100BD0007D120000310C0000C379DB09FCD17047A5
:100BE000F8B504000D4DA8472000A84723789B07BF
:100BF00005D5002320002370A8472000A84701271F
:100C0000002627702000A8472000A847A6702000D3
:100C100067702670A8473000F8BDC046D90B0000A9
:100C200010B5024B01600800984710BDE10B0000B1
:100C3000C3070BD4030708D50422094BFF329A607F
:100C4000084A5A605A78D209FCD170478022044B76
:100C500052009A60044A5A605A78D209FCD1E9E7F6
:100C6000000C00400303210000072100064B1A7A04
:100C7000D2B21A725A7AD2B25A729A7AD2B29A729C
:100C8000DA7AD2B2DA72704700040040837ADB0964
:100C9000FCD1704770B501260400C1600C4D0E8078
:100CA0000800A847E068A8478023E0680380A847B9
:100CB000E06883698023DB008361A8478022E368C2
:100CC0005200DE719A80034B00201C6070BDC0464C
:100CD0008D0C000090000020082270B5084B050024
:100CE000C0681A6003690023064C0361A047E868E6
:100CF000A0470223E868028813430380A04770BD21
:100D000000E100E08D0C000010B5C468034B20002A
:100D1000984720888007C00F10BDC0468D0C00008A
:100D2000704700207047000070B50125064B1C6815
:100D3000E3681B7A2B4206D02368002B01D02000E9
:100D40009847E3681D7270BD90000020C369194286
:100D5000FCD17047C3691942FCD17047022210B51B
:100D60000368032193430360014B984710BDC046BD
:100D70004D0D0000022210B5036803219343036068
:100D8000014B984710BDC046550D0000034BC018DD
:100D9000800AC0B2431E98414042704700F8FFBD30
:100DA000F8B5022302680321134303600F4D0400CA
:100DB0000427A8470E4E04212000A8470322638B76
:100DC0001B091340012B01D10020F8BD013E002E6C
:100DD000F1D1013F002F05D01023042163832000AF
:100DE000A847E7E706204042EFE7C0464D0D000068
:100DF000FFFF0000C02310B542689B02134343600D
:100E00000421014B984710BD4D0D0000F7B50500BA
:100E1000036800915B4F042114000193B84701213E
:100E20006B8B009E9BB20E400222002E00D166E02A
:100E300013420FD080220B405E425E4129766088CB
:100E400052010243628062884F48053E0240628040
:100E50003000FEBD04261E4015D06368002B04DD63
:100E6000802362885B011343638063881BB2002B7D
:100E700002DA2800454B98476388434A1340638051
:100E800002267642E4E780236288DB001A40009263
:100E900018D0062223880421DB0913402800009380
:100EA000B84780226B6AD2011A40F1231343009A9B
:100EB000042113436B622800B8476388344A134007
:100EC0006380C5E76668002E09D163881BB2002BDA
:100ED00002DA28002D4B984763882B4AEFE7A36876
:100EE00004211A782B0028331A702800B847A36809
:100EF0000133A3606368013B63600026A8E70098A4
:100F00001042A5D06268002A38D05B0736D4019B16
:100F1000013ADE0E0E406260002A0AD1002E0CD18A
:100F200080236A68DB0213436B6004212800B84702
:100F300003E0012A01D1002EF2D16368002B10D109
:100F40006388114E1BB2002B08DA6B68280033400F
:100F50006B600421B84728000C4B984763883340E6
:100F60006380A6680421731CA3602800B8472B0087
:100F700028331B78337002232B76BEE702232B76AF
:100F80007EE7C0464D0D0000FFFEFFFFF50D00009F
:100F9000FFFBFFFFF7B50C000090264B08009847B9
:100FA000E369C7B2244EDB071BD418237B43234AD3
:100FB0000225D3185A681C2303211A4020000192ED
:100FC000B04723682B4205D020001D4B98472900CD
:100FD0002000B0470123019A03211343236020001E
:100FE000B04718257D4320000121B047134B200056
:100FF0005D196F6803212760B047AB68200063600C
:101000000421B047EB68BF01E360009BB90F9981F1
:10101000676A0C4A20003A4001278F42BF417F4255
:10102000BF03174367620421B0476B8A009A002010
:10103000D381FEBD8D0D00004D0D00000C2A000077
:101040005D0D0000FFBFFFFF70B5C3690400154DC3
:10105000DB0710D402260321A8472368334205D0BA
:101060002000114B984731002000A8470523032199
:1010700023602000A84720000121A8470B4B200037
:1010800023600321A847C0239B026360200007213F
:10109000A847D22300205B42A381A0733034207084
:1010A00070BDC046550D0000750D000004001040D5
:1010B00010B5024B01600800984710BD49100000B0
:1010C000036889B2198570470368188DC0B27047EC
:1010D0000368187E0123184070470368187E800754
:1010E000C00F70470368187E4007C00F70470000AC
:1010F00010B5024B0161984710BDC046950F000026
:1011000010B50069014B984710BDC046A10D000005
:101110008023F0B585B0019142885B000400066928
:101120001A4200D080E04A881A434A800200A1C9CE
:10113000A1C272680421134373603000434FB84763
:10114000256962682B68012A40D1DB0E13423DD02D
:1011500080236A68DB0213436B6004212800B847D0
:1011600080232288DB00510002911A4232D062882B
:10117000D20702D562881343638004212800B84750
:10118000334B02996A6A19400B008021C901114052
:10119000802212020A4313436B6228000421B847DD
:1011A0008023032220695B02017E013BC9B2002B30
:1011B00024D128002200274DA8470327002820D04B
:1011C0006388254A1340638005B0F0BD6B68234AED
:1011D0001340C1E7638804219BB228001B4F03938F
:1011E000B847FF230299039819400B0001210140E1
:1011F0000B4380216A6AC9010A40CCE71142D3D06F
:10120000D7E78022638852001342DDD08023226911
:101210005B02117E013BC9B2002B07D03942F8D0E6
:1012200022003000A847ECE706200CE0019B5B8819
:101230001BB2002B02DA3000094B98470520638867
:10124000054A134063804042BEE7C0464D0D000092
:10125000FE0700000D0E0000FFFEFFFFFFFFFBFF7B
:10126000F50D00000222044B99690A431F219A617F
:101270001A7F0A401A777047000800400222184B74
:101280009A840E32D9681142FCD0164ADA62164AA4
:101290001268920E3F2A0FD08021920289000A43E1
:1012A0009A62912252009A849A8C520707D4102293
:1012B000D9681142FCD006E0FC22D201F0E71022EE
:1012C000D9681142FCD08022998C0A4307499A843C
:1012D0004A78D209FCD102219A698A439A617047FF
:1012E000000800400000010424608000000C004061
:1012F000C02270B5134B144C18782578D2051021F4
:10130000854218D85161C02259786678D2052025C7
:101310008E4212D85561A6788025C0249A78E405BB
:10132000ED0096420BD86561013001310132187031
:1013300059709A7070BD9161E5E79561EBE7A56121
:10134000F2E7C0469400002000000020F0B5914B69
:1013500095B098478022904B5200DA6704238F495A
:101360000027087803430B708D4B3C211A60022044
:1013700000228C4B984700208B4B98478B4B98470B
:1013800000208B4EB0478B4D01210A20A847012138
:10139000894C8A48A0470120B04712210A20A8475B
:1013A00001218748A047012202215F20854B9847F1
:1013B000854B9847FA2001248000844B98470021F0
:1013C000834B844898478449844B854D0B61CC609E
:1013D0000C75844B0431280098472800824B9847AD
:1013E0000497039405970BA8804B9847C023DB050F
:1013F0001C687F4B0BA81A6AC023DB051B6953408E
:101400001C407C4B5440984780228023D2021B030F
:10141000144200D1B9E0C022D20593610137FFB276
:10142000754BFF2F13D1002204995A5403995F542E
:1014300004990131C9B20491022900D90492039A96
:1014400000270132D2B20392022A00D90397049AEC
:1014500004999A5C0598013A5A54039A03999A5C44
:1014600001325A540A21654B9847CCB2002C00D067
:1014700083E0584D2300182202212800604EB04717
:101480002100022309AA28005E4EB047230018223B
:10149000032128005A4EB0470AAE32002100022331
:1014A0002800584CA04706AB5C7B1B7B7578240258
:1014B000E41833782D02ED181E3D534B06959847DE
:1014C0003B4D0220A8473B4E06210420B0473A4B33
:1014D00001214E4898470C210520B0470320A8471A
:1014E000354B01214A48984717210120B047022077
:1014F000A847314B0121474898470120A8471E3C87
:1015000008212320B047E343B425DB171C406D00BE
:101510006C43A412404B6421200098473F4B079036
:101520006421200098473E4A0091079B0F213D4CC3
:101530000CA8A047204B01210CA898471421232078
:10154000B047069B069ADB43DB1713405D43AD12A1
:10155000314B642128009847304B06006421280055
:10156000984733000091304A0F2110A8A047124B32
:10157000012110A89847144B9847144B0520984711
:10158000059B0133DBB205932DE7C022D2055361E1
:1015900044E7C0461501000008000060C84400414F
:1015A00094000060E9160000BD160000911D0000C7
:1015B000191E0000F91D0000AD1D0000242A0000C6
:1015C0002A2A0000E51B0000AD170000D10600002C
:1015D0000D060000C402002094000020F11200005B
:1015E0000003002095080000710800009D0600001F
:1015F00000440041AB06000000000020451F000031
:101600008D0600001D06000011180000342A00009D
:10161000372A0000302A00004D1F00001921000069
:101620003A2A000091210000492A000030B584B216
:101630007F2C1BD88DB21F2D18D81E4B1B78022B68
:1016400015D0032B1AD0012B03D17F214D1B010094
:1016500028B20724CB1723405B18DB10A3401818CF
:10166000012A10D0002A15D0022A1BD030BD7F20BD
:101670001F21001B491B00B209B2EAE71F231B1BF5
:10168000080019B2E5E721408A400B4B195C0A4378
:101690001A54EBE7012221408A40074D2B5C93430B
:1016A0002B54E3E7012321408B40034A115C4B405C
:1016B0001354DBE71C030020AC000020014B187022
:1016C0007047C0461C030020002307B501A90B701A
:1016D000034B487002221868024B984707BDC0466A
:1016E000200300209307000070B50026274B284CEC
:1016F0001870284B28491E700500284B2000984779
:1017000080223C2112012000254B9847254B2000C8
:101710009847254CAE20A047D520A0478020A04761
:10172000A820A0471F20A047D320A0473000A047F3
:101730004020A0478D20A0471020012D00D014206C
:10174000A0472020A0470020A047A120A047C820F4
:10175000A047DA20A0470220A0478120A0478F2081
:10176000A047D920A0472220012D00D0F120A0477A
:10177000DB20A0474020A047A420A047A620A047E8
:101780002E20A047AF20A04770BDC046AC0200206D
:10179000E00200201C030020200300208B07000033
:1017A000790700006D070000C9160000F0B5212080
:1017B000134C87B0A0470020A0477F20A0472220DD
:1017C000A0470020A04780250320A04740260024F2
:1017D000AD00002301A90B4F0E70E21892B2BA5C63
:1017E000C81801334270102BF7D1074B1034A4B244
:1017F00018681122054B9847AC42EAD107B0F0BDFA
:10180000C9160000AC000020200300209307000050
:10181000802210B5920000210148024B984710BD6C
:10182000AC0000207F21000030B58CB21F2C2DD8D9
:10183000002802DA1218002012B28518802D02DD6D
:101840008022121A12B2002A20DDC910C90108181C
:1018500014490918072004400638A040C4B2012BDF
:1018600010D0002B13D0022B10D1013A12B2531C0E
:101870000CD00B7863400B700131F6E70B782343F3
:101880000B700131013A12B2531CF7D130BDE44361
:10189000E4B2013A12B2531CF8D00B7823400B701B
:1018A0000131F6E7AC00002070B584B27F2C7DD802
:1018B000002902DA5218002112B28C18202C02DD05
:1018C0002024641A22B2002A70DDC9B2CC08E401D7
:1018D00020183A4CD2B22018072421401FD00134DE
:1018E000611A374CC9B2645C8A4260D2FF258E1AF5
:1018F00035412C40012B06D0002B08D0022B55D1AE
:1019000005786C4001E005782C43047002E005780E
:10191000A54305708A4249D3521AD2B28030072AB1
:101920002FD9022B17D1010013000C78083BE44398
:10193000DBB20C708031072BF7D813000721083B6E
:10194000DBB2DB080133DB01C0180A402ED01C4992
:101950008A18127A20E0591E4C4261410500140099
:101960004942C9B2083CE4B229708035072CF9D845
:1019700011000839C9B2C9080131C901401807214D
:101980000A40002A12D00E498A18127A012B06D07A
:10199000002B08D0022B09D103785A4001E00378CC
:1019A0001A43027002E003789343037070BD012B69
:1019B000A9D0002BABD0022BA2D0ADE7AC00002009
:1019C000582A000010B50C000F49097802290BD0E5
:1019D000032913D001290ED17E310C1B24B2010042
:1019E00020000A4CA04710BD1F210C1B6131891A31
:1019F000081A24B200B22100054CF3E72021891A0D
:101A0000081A00B2EBE7C0461C030020A91800002A
:101A10002918000010B50C000F49097802290CD0D4
:101A2000032914D001290FD17F31891A0C1B24B24C
:101A300001002000094CA04710BD7F21081A5F3922
:101A4000891A0C1B00B224B22100054CF3E71F21B8
:101A5000081A00B2ECE7C0461C0300202918000059
:101A6000A91800000C4B01000200180070B570C8E6
:101A700070C10A490878032807D800F0D3F9020397
:101A8000080A0C33110031CB31C1100070BD18337E
:101A9000F8E72433F6E7C046682A00000300002078
:101AA000F0B58BB012AD08912D7810A90C7811A962
:101AB000097809950A2807D1414B5A881A805A8912
:101AC000511859810BB0F0BD0D28FBD09842F9D3C5
:101AD000A042F7D8C01AC0B2C0001418A778002FCF
:101AE00005D1374A237911885B181380EAE7E0783B
:101AF0000028F6D00523E356314A04930025535FAE
:101B0000049DED195B190626955FAB4208DB2D4B52
:101B10005B78002B04D05388138053895918518166
:101B20002749002600228B5E4A8905932388039368
:101B30000623E35602979BB2D1181B18D31889B21B
:101B40009BB201910693029B069A0199DB1BDBB2C3
:101B50008A42C6D0059A04995518ADB225E05A1CA0
:101B6000D2B207920722134206D1039B0399089A27
:101B700001339BB2565C039373B2002B10DA6B46B1
:101B80000421595E0E4B04201A5E02338A4207DCA0
:101B900006229B5E8B4203DB28B2099A0A4B9847C8
:101BA00076000135079BF6B2ADB2029A9342D6D1C8
:101BB000BB18DBB20293019B01339BB20193C2E7D6
:101BC000AE020020030000202D1600000022044970
:101BD0008B1C4A8080215A8020329980DA8070479D
:101BE000AE020020F0B583B28BB09D1C01932BB2E6
:101BF00004936B4606911B8B14001F0006000A37E6
:101C00003FB202933900130004980A22584DA847A6
:101C1000029B30000C331BB20393039923000A226A
:101C2000534DA847029B30000E331BB20593059914
:101C300023000A224E4DA847029E2300103636B2DA
:101C4000310004980A224A4DA847019D23000F3510
:101C50002DB2390028000A22454FB847019B03994D
:101C600011331BB20493049823000A22404FB84753
:101C70002300059904980A223D4FB84723003100FC
:101C800028000A223A4DA847019B3A4D0A331BB25D
:101C90000793029B07989E1C36B2230031000A224C
:101CA000A847019B06990C331BB2059305982300A6
:101CB0000A22A847019B06990E331BB20893089885
:101CC00023000A22A847019B310010331BB209935D
:101CD000099823000A22A847029F23000F373FB22A
:101CE000390007980A22A847029E0598113633B298
:101CF0000693069923000A22A8472300069908980C
:101D00000A22A8472300390009980A22A847019F00
:101D100002990B373FB209312300380009B205227E
:101D2000134EB0472300069938000522104EB047E5
:101D3000029E01980B3636B209302300310000B202
:101D40000522A8472300310004980522A8470A4D20
:101D5000220003993800A847220031000598A847BF
:101D6000019822000D3000B23100A8470BB0F0BD41
:101D7000C5190000151A00002D1600001FB501AC92
:101D80002000024B9847A07A04B010BD651A0000ED
:101D900010B5034B9847034B9847034B984710BD2A
:101DA000CD1B000011180000AD170000F0B58BB07E
:101DB00007AD06000D4B2800059100249847300020
:101DC0000B4B9847844201D30BB0F0BD059A2B7A98
:101DD0000292AA7A305D01926A7A07990092054FC1
:101DE000089A0134B847A4B2E9E7C046651A000072
:101DF000F5210000A11A000070B5054C054B0D003F
:101E0000208098474008C1B24919618170BDC04621
:101E1000AE0200207D1D0000014B18707047C046C7
:101E20000300002002B4714649084900095C4900DA
:101E30008E4402BC7047C046002243088B4274D3D4
:101E400003098B425FD3030A8B4244D3030B8B42BB
:101E500028D3030C8B420DD3FF22090212BA030CC4
:101E60008B4202D31212090265D0030B8B4219D3A5
:101E700000E0090AC30B8B4201D3CB03C01A5241C5
:101E8000830B8B4201D38B03C01A5241430B8B420D
:101E900001D34B03C01A5241030B8B4201D30B03F6
:101EA000C01A5241C30A8B4201D3CB02C01A52411D
:101EB000830A8B4201D38B02C01A5241430A8B42E0
:101EC00001D34B02C01A5241030A8B4201D30B02C9
:101ED000C01A5241CDD2C3098B4201D3CB01C01AE3
:101EE000524183098B4201D38B01C01A52414309ED
:101EF0008B4201D34B01C01A524103098B4201D3DB
:101F00000B01C01A5241C3088B4201D3CB00C01A47
:101F1000524183088B4201D38B00C01A52414308BF
:101F20008B4201D34B00C01A5241411A00D20146E4
:101F3000524110467047FFE701B5002000F0F0F86D
:101F400002BDC0460029F7D076E7704703460B4331
:101F50007FD4002243088B4274D303098B425FD3A2
:101F6000030A8B4244D3030B8B4228D3030C8B42CE
:101F70000DD3FF22090212BA030C8B4202D31212B4
:101F8000090265D0030B8B4219D300E0090AC30B89
:101F90008B4201D3CB03C01A5241830B8B4201D336
:101FA0008B03C01A5241430B8B4201D34B03C01A1F
:101FB0005241030B8B4201D30B03C01A5241C30A97
:101FC0008B4201D3CB02C01A5241830A8B4201D308
:101FD0008B02C01A5241430A8B4201D34B02C01AF2
:101FE0005241030A8B4201D30B02C01A5241CDD297
:101FF000C3098B4201D3CB01C01A524183098B42E2
:1020000001D38B01C01A524143098B4201D34B01CA
:10201000C01A524103098B4201D30B01C01A52412D
:10202000C3088B4201D3CB00C01A524183088B42B4
:1020300001D38B00C01A524143088B4201D34B009D
:10204000C01A5241411A00D201465241104670470F
:102050005DE0CA0F00D04942031000D34042534014
:1020600000229C4603098B422DD3030A8B4212D3D4
:10207000FC22890112BA030A8B420CD38901921106
:102080008B4208D3890192118B4204D389013AD043
:10209000921100E08909C3098B4201D3CB01C01A18
:1020A000524183098B4201D38B01C01A524143092B
:1020B0008B4201D34B01C01A524103098B4201D319
:1020C0000B01C01A5241C3088B4201D3CB00C01A86
:1020D000524183088B4201D38B00C01A5241D9D29E
:1020E00043088B4201D34B00C01A5241411A00D21F
:1020F0000146634652415B10104601D34042002B1B
:1021000000D54942704763465B1000D3404201B599
:10211000002000F005F802BD0029F8D016E770474E
:102120007047C04670B500260C4D0D4C641BA410C2
:10213000A64209D1002602F02BF90A4D0A4C641B75
:10214000A410A64205D170BDB300EB5898470136E4
:10215000EEE7B300EB5898470136F2E79C430000E6
:102160009C4300009C430000A0430000002310B5E6
:102170009A4200D110BDCC5CC4540133F8E703008F
:102180008218934200D1704719700133F9E70000BB
:102190000CB430B5164B9DB00C1E1D6808DA8B23AD
:1021A00001202B6040421DB030BC08BC02B0184773
:1021B000822302A99B008B810023029008619C422C
:1021C00000D0631E8B604B6101235B42CB81209A60
:1021D00021AB2800019300F0D5F8431C01DA8B23D2
:1021E0002B60002CDFD00023029A1370DBE7C0467F
:1021F000080000200023C25C0133002AFBD1581ED6
:1022000070470000032370B5CD1C9D4308350600C0
:102210000C2D1ED20C25A9421DD8300000F06DFBFC
:10222000254A14682100002919D1244C2368002B69
:1022300003D1300000F032FB20602900300000F0B4
:102240002DFB431C2CD10C233000336000F056FBD7
:1022500003E0002DDFDA0C233360002070BD0B6833
:102260005B1B1AD40B2B03D90B60CC18256003E041
:102270008C420ED163681360300000F03FFB2000F9
:1022800007220B30231D9043C31AE7D05A42E25075
:10229000E4E74B6863600C00EEE70C004968C2E7B6
:1022A0000323C41C9C43A042E0D0211A300000F05C
:1022B000F5FA431CDAD1C6E7BC020020C0020020B8
:1022C000F0B58E6885B007000C00039201939E4222
:1022D00039D890238A89DB001A4234D00325096952
:1022E00023685B1A0293636902985D43EB0F5D19E3
:1022F000019B6D1001331B18AB4200D91D00530523
:1023000032D529003800FFF77DFF061E09D10C23C6
:102310003B6040230120A28940421343A38105B0C2
:10232000F0BD029A2169FFF721FFA389144A1A40E0
:1023300080231343A381029B2661F6182660656102
:10234000019EED1AA560019BB34200D21E0032002F
:102350000399206800F0BFFAA36800209B1BA360CC
:1023600023689E192660DAE72A00380000F012FB85
:10237000061EE0D12169380000F0C2FAC7E7C04666
:102380007FFBFFFFF0B59FB0029005938B890F0094
:1023900016001B0611D50B69002B0ED14021FFF74B
:1023A00031FF38603861002805D10C23029A0138CA
:1023B00013601FB0F0BD40237B61002306AD6B614D
:1023C00020336B761033AB7634002378002B47D163
:1023D000A31B04930DD0A31B320039000298FFF712
:1023E0006FFF431C00D1B5E06A69049B94466344C7
:1023F0006B612378002B00D1ACE001220023524214
:102400006A6002A95432521801342B60EB60AB6051
:102410001370AB65584E05222178300000F050FA59
:10242000621C002820D12968CB0604D5532302AEB4
:1024300020309B1918700B0704D553232B2002AEB4
:102440009B19187023782A2B16D000200A21099B8B
:102450002278303A092A55D9002815D0099313E07B
:10246000252BB5D00134B0E70123801B83402968B8
:1024700014000B432B60CDE7059B181D1B680590CE
:10248000002B39DB0993140023782E2B0BD16378B2
:10249000621C2A2B3ED1059B02341A1D1B68059233
:1024A000002B34DB0793354E21780322300000F0F7
:1024B00007FA002806D04023801B83402A68013495
:1024C00013432B60217806222D48661C297600F0E4
:1024D000F7F9002846D02B4B002B2FD12968059BFC
:1024E0000722C90528D59B189343083305936B69C8
:1024F000039A9B186B6167E75B42EB6002230B4317
:102500002B60C0E74B4301349B180120A0E7012357
:102510005B42C7E7002314000A201A006B60217891
:102520003039092903D9002BBDD00792BBE74243BC
:10253000013452180123F2E70733D5E705AB0093C6
:102540003A00114B2900029800E000BF0390039B62
:102550000133CCD1BB890B985B0600D429E701205D
:10256000404226E705AB00933A00074B290002984A
:1025700000F07AF8EAE7C0465C43000062430000DE
:102580006643000000000000C1220000F7B51500FE
:1025900001938A680B6900900C00934200DA1300E3
:1025A00022002B6043321278002A01D001332B60C5
:1025B00023689B0602D52B6802332B60062723680D
:1025C0001F4027D0230043331B785A1E93412268B3
:1025D000920630D42200019943320098089EB047F9
:1025E000431C25D0062320682A68E16803400025A3
:1025F000042B03D18D1AEB43DB171D40A36822691E
:10260000934201DD9B1AED180027BD4220D1002026
:1026100010E00137E3682A689B1A9F42D2DA220051
:102620000123193201990098089EB047431CF0D14C
:1026300001204042FEBD3020E118433108702100E6
:102640005A1C45310978A218433202331170C1E790
:10265000220001231A3201990098089EB047431CBA
:10266000E6D00137D1E70000F0B58BB006920A0042
:1026700043320793059004920A7E0C00109B6E2A49
:1026800000D18FE017D8632A2CD008D8002A00D1B7
:1026900099E0582A54D026004236327029E0642A44
:1026A00001D0692AF7D121681A68080623D5111DBF
:1026B0001960156825E0732A00D188E008D86F2AD0
:1026C00029D0702AE7D1202209680A43226003E05A
:1026D000752A20D0782ADED1220078214532117067
:1026E0006C4A30E00E001A684236111D19601368FA
:1026F0003370012379E04906D9D5111D19600023F3
:10270000D55E002D03DA2D23049A6D421370624BBF
:102710000A2703932FE020681968050603D5081DD2
:1027200018600D6805E04006F9D50D68081D1860B1
:10273000ADB2594B082703936F2A18D00A2716E029
:1027400045310A70544A03921A682168101D1860B6
:102750001568080622D5CB0702D52023194321602E
:102760001027002D03D1202322689A4322602300E2
:10277000002243331A706368A360002B5CDB0422E1
:10278000216891432160002D58D1049E002B64D014
:102790002600039B42361B7833705EE04806DAD58C
:1027A000ADB2D8E709681A68080605D5111D196089
:1027B000136862691A6006E04906F7D5111D1960B1
:1027C0001368A28A1A800023049E236154E01A68C9
:1027D000111D1960166800216268300000F070F861
:1027E000002801D0801B6060636823610023049A85
:1027F000137041E02369320006990598079DA847A8
:10280000431C43D0236800259B070FD4099BE06835
:1028100098423DDA18003BE0220001231932069964
:102820000598079EB047431C30D00135E368099AEC
:102830009B1A9D42F0DBE9E7002DA9D0049E2800F9
:102840003900FFF77FFB039B013E5B5C2800337080
:102850003900FFF7F1FA051EF1D1082F09D12368DD
:10286000DB0706D563682269934202DC3023013E10
:102870003370049B9B1B2361079B09AA00932100D3
:10288000069B0598FFF782FE431CB3D1012040420E
:102890000BB0F0BD7E4300006D430000002370B517
:1028A000064C050008002360FEF79AF8431C03D18C
:1028B0002368002B00D02B6070BDC046240300208D
:1028C000C9B28218904201D10020704703788B4230
:1028D000FBD00130F6E710B5884202D98B18984238
:1028E00008D300239A4207D0CC5CC4540133F9E7E3
:1028F0008B5C8354013AFBD210BD704770470000D7
:1029000070B50500002910D00C1F2368002B00DAD9
:10291000E4182800FFF7F1FF1D4A1368002B05D1CA
:10292000636014602800FFF7E9FF70BDA34209D976
:10293000216860188342F3D118685B6841182160F0
:10294000EEE713005A68002A01D0A242F9D91968AB
:102950005818A0420BD120680918581819608242F3
:10296000E0D110685268411819605A60DAE7A04255
:1029700002D90C232B60D5E721686018824203D16D
:10298000106852684118216062605C60CAE7C04606
:10299000BC020020F8B507000D001600002905D183
:1029A0001100FFF72FFC04002000F8BD002A03D11E
:1029B000FFF7A6FF3400F7E700F012F82C0086427C
:1029C000F2D931003800FFF71DFC041EECD02900BD
:1029D0003200FFF7CBFB29003800FFF791FFE3E758
:1029E0000B1F1B68181F002B01DA0B58C01870470B
:1029F00000020000000020000000000000000000B5
:102A000000000000000000000000000000000000C6
:102A10001400200000010000313200000000D70047
:102A2000006CDC0244435A696100333020696E2037
:102A30004F4E4500333000696E00414443313A2027
:102A400025642E253032647600414443323A2025F5
:102A5000642E2530326476000080C0E0F0F8FCFE81
:102A6000000103070F1F3F7FAC370000B4340000A4
:102A7000207E1000403D0000483A0000207E1800F3
:102A800010320000182F0000207E0C00902D000056
:102A9000982A0000207E0C000000000006000100C3
:102AA000000001070603FA00010003030602FA0012
:102AB000030006070600FA00090005080601FA00EF
:102AC0000E0006070600FA00140005070601FA00CA
:102AD000190001030603FA001A0002090602F900B0
:102AE0001D0002090602F900200005040601FA0093
:102AF000230005050601FB00270001030602000074
:102B0000280003010602FE00290001010402000062
:102B10002A0005080601FA002F0005070601FA0041
:102B2000340005070601FA00390005070601FA001E
:102B30003E0005070601FA00430005070601FA00FA
:102B4000480005070601FA004D0005070601FA00D6
:102B5000520005070601FA00570005070601FA00B2
:102B60005C0005070601FA00610001050602FC0091
:102B7000620001070602FC00630005050601FB0078
:102B8000670005030600FC00690005050601FB005F
:102B90006D0004070601FA00710005090601FA003C
:102BA000770005070601FA007C0005070601FA0018
:102BB000810005070601FA00860005070601FA00F4
:102BC0008B0005070601FA00900005070601FA00D0
:102BD000950005070601FA009A0005070601FA00AC
:102BE0009F0005070601FA00A40004070601FA0089
:102BF000A80005070601FA00AD0005070601FA0066
:102C0000B20005070601FA00B70005070601FA0041
:102C1000BC0005070601FA00C10005070601FA001D
:102C2000C60005080601FA00CB0006070601FA00F7
:102C3000D10005070601FA00D60005070601FA00D3
:102C4000DB0005070601FA00E00005070601FA00AF
:102C5000E50006070600FA00EB0005070601FA008A
:102C6000F00005070601FA00F50005070601FA0065
:102C7000FA0002090602F900FD0005080601FA0043
:102C8000020102090602F900050105030600FA0027
:102C90000701050106000200080102020601F90011
:102CA000090105050601FC000D0105080601F900F2
:102CB000120104050601FC00150105080601F900D2
:102CC0001A0105050601FC001E0104080601F900B1
:102CD000220105070601FC00270105080601F9008D
:102CE0002C0105080601F9003101030A0601F9006B
:102CF000350105080601F9003A0105080600F9004A
:102D00003F0105050601FC00430105050601FC0025
:102D1000470105050601FC004B0105070601FC0003
:102D2000500105070601FC00550104050602FC00E0
:102D3000580105050601FC005C0104070601FA00C4
:102D4000600105050601FC00640105050601FC00A3
:102D5000680105050601FC006C0105050601FC0083
:102D6000700105070601FC00750105050601FC0060
:102D7000790104090601F9007E01010A0603F90040
:102D8000800104090602F900850105020601FD0023
:102D9000FAB68028A7D4F9450023E9C397C4E28E88
:102DA0008C5C51C0721959C9A0E06AAA40A556802E
:102DB000AB9D50213E4200E0E08008844221107427
:102DC0006358C5C0E1084213E074423323E0744203
:102DD000E0C5C01195AF8840F43C1087C07E21E863
:102DE000C5C0F8C42211007462E8C5C07462F08FD7
:102DF000C0888E0BA0E080F83E8382E800F124407A
:102E000040726F5AD6E8302114A74620F463E8C711
:102E1000C07E610865E0F4E318CFC0FC21F843E010
:102E2000FC21F84200766138E5E08C63F8C620F9B1
:102E3000084213E0711119608CA98A4A2084210884
:102E400043E08EF758C6208E7359CE20746318C5A0
:102E5000C0F463E84200746318C5C3F228BC9A2822
:102E6000407460E0C5C0F9084210808C6318C5C08A
:102E70008C54A5108086DB5E4924808A94452A20E4
:102E80008A94421080F8844423E0EAAAC082104267
:102E90000841D555C022A2F890F05F1F808421E838
:102EA000C63E7888700842F8C62F747F0780344F7A
:102EB00044447C631785C084216CC6312000C21055
:102EC0009F2072493884212A7251E108421083FD03
:102ED0006B5A80B663188074631700F4631F420056
:102EE0007C63178420F988807C1E1F0044F44470A2
:102EF0008C6317808A94A2008D54A500DA88AD8077
:102F00008A94421300F8888F803222C22230FFC098
:102F1000C4443444C0E0C0000000000003000100CD
:102F2000000002090300F800030005030600F80092
:102F3000050007090700F8000D00060C0700F60061
:102F4000160007090800F8001E0008090800F8002C
:102F5000270002030300F800280004090400F80019
:102F60002D0004090803F8003200030103FFF800F4
:102F7000330007070800F9003A0002030300FF00CE
:102F80003B0007020800FB003D0002020300FF00B7
:102F90003E0007090800F800460007090800F8008D
:102FA0004E0004090500F800530007090800F80066
:102FB0005B0007090800F800630007090800F80033
:102FC0006B0007090800F800730007090800F80003
:102FD0007B0007090800F800830007090800F800D3
:102FE0008B0007090800F800930002060300F900AF
:102FF000950002070300F900970009090900F8008D
:10300000A20007060800F900A80009090900F80055
:10301000B30006090700F800BA0009090900F80022
:10302000C50007090800F800CD0007090800F800EE
:10303000D50007090800F800DD0007090800F800BE
:10304000E50007090800F800ED0007090800F8008E
:10305000F50008090900F800FE0007090800F8005B
:10306000060102090300F800090107090800F80039
:10307000110107090800F800190107090800F80004
:10308000210108090900F8002A0107090800F800D1
:10309000320107090800F8003A0107090800F800A2
:1030A0004201070A0800F8004B0107090800F80070
:1030B000530107090800F8005B0107090800F80040
:1030C000630107090800F8006B0107090800F80010
:1030D000730108090900F8007C01070A0800F700DD
:1030E000850107090800F8008D01070A0800F700AC
:1030F000960104090400F8009B0107090800F80084
:10310000A30104090500F800A80109090900F80055
:10311000B30107020800FF00B50109090900F80022
:10312000C00107090800F800C80107090800F800F5
:10313000D00107090800F800D80107090800F800C5
:10314000E00107090800F800E80107090800F80095
:10315000F00108090900F800F90107090800F80062
:10316000010202090300F800040207090800F80040
:103170000C0207090800F800140207090800F8000B
:103180001C0208090900F800250207090800F800D8
:103190002D0207090800F800350207090800F800A9
:1031A0003D02070A0800F800460207090800F80077
:1031B0004E0207090800F800560207090800F80047
:1031C0005E0207090800F800660207090800F80017
:1031D0006E0208090900F8007702070A0800F700E4
:1031E000800207090800F8008802070A0800F700B3
:1031F000910205090500F800970202090300F80092
:103200009A0205090600F800A00207030800FA0068
:10321000FFF3C0DEF66DFFFB66DFFFB66C30CFFF5D
:1032200083EFC3CFFFCCE3CC30E18E1C33C6FEFE70
:10323000C0F777C6C6FE7CFC7FCCCCCF70EF3333B3
:103240003FE0E03063FFF3060C00F4FFFCF0060CF7
:1032500030C18E1830C07DFF1E3C78F1FF7CEF330B
:10326000333330FDFC1BFFD8307FFEFDFC19F3C06B
:10327000C1FFFCC78F1FF7E0C18306FFFF07E7E030
:10328000F1FF7C7FFF07EFF8F1FF7CFFFC1871C6B0
:103290000C18307DFF1FF7D8F1FF7C7DFF1FF7E092
:1032A000C18306F0F0F0F8FFF1FFFCFFFF1FFFCF36
:1032B000FF80FFFC000FFFC0FFF1FFFCFFFF1FFFBF
:1032C000CFFF80FFF0CF38C00C30FFF1FFFCFFFFD5
:1032D0001FFFCFFF807DFF1FFFF8F1E3C6FDFF1F3B
:1032E000FFD8F1FFFCFFFF060C1831FF7CFDFF1E2D
:1032F0003C78F1FFFC7FFF07CF98307F7E7FFF0790
:10330000CF983060C0FFFFC0CECFC3C3FF7EC78F52
:103310001FFFF8F1E3C6FFFFC01E3C183078F1FF35
:103320007CC78F1FFFD8F1E3C6C183060C18307F1E
:103330007EC3E7E7F7DBDBCBC3C3C7CF9FBD7BF320
:10334000E7C67DFF1E3C78F1FF7CFDFF1FFFD830F4
:1033500060C07DFF1E3C78F7FF7E30FDFF1FFFD869
:10336000F1E3C6FFFF07E7E0F1FF7CFFFCC1830646
:103370000C1830C78F1E3C78F1FF7CC78F1E3C6D48
:103380009B1C10C3C3CBDBDBF7E7E7C3C6CDB1C3E0
:10339000870E36678CC78F1FF7E0F1FF7CFFFC308C
:1033A000C1860C30FFFCFFCCCCCFF0C0C181C18303
:1033B000838306FF33333FF0FFF1FFFCFFFF1FFF66
:1033C000CFFF80FFFCFFF1FFFCFFFF1FFFCFFF805F
:1033D0007DFF1FFFF8F1E3C6FDFF1FFFD8F1FFFCE3
:1033E000FFFF060C1831FF7CFDFF1E3C78F1FFFC4F
:1033F0007FFF07CF98307F7E7FFF07CF983060C078
:10340000FFFFC0CECFC3C3FF7EC78F1FFFF8F1E31E
:10341000C6FFFFC01E3C183078F1FF7CC78F1FFF2E
:10342000D8F1E3C6C183060C18307F7EC3E7E7F707
:10343000DBDBCBC3C3C7CF9FBD7BF3E7C67DFF1EDE
:103440003C78F1FF7CFDFF1FFFD83060C07DFF1E80
:103450003C78F7FF7E30FDFF1FFFD8F1E3C6FFFF8A
:1034600007E7E0F1FF7CFFFCC183060C1830C78F33
:103470001E3C78F1FF7CC78F1E3C6D9B1C10C3C3A4
:10348000CBDBDBF7E7E7C3C6CDB1C3870E36678C6E
:10349000C78F1FF7E0F1FF7CFFFC30C1860C30FFC7
:1034A000FC3BD8CC318F38FFFFC0E78C6198DEE061
:1034B00067FF780000000000080001000000010A1A
:1034C0000803F700020004040802F7000400070ADA
:1034D0000800F7000D00070E0800F5001A00070AA3
:1034E0000800F7002300070A0800F7002C00020478
:1034F0000803F7002D00030D0802F7003200030D4A
:103500000802F700370007070800F7003E0007072A
:103510000800F9004500020308030000460004010A
:103520000802FD0047000101080300004800070DE4
:103530000800F700540007080800F9005B000608BF
:103540000801F900610006080801F9006700060992
:103550000801F9006E0007090800F9007600060965
:103560000801F9007D00070A0800F7008600070936
:103570000800F9008E00060A0801F7009600070906
:103580000800F9009E0001070803FA009F000209E5
:103590000803FA00A20007070800F900A9000704C1
:1035A0000800FB00AD0007070800F900B400070A97
:1035B0000800F700BD00070A0800F700C600070A68
:1035C0000800F700CF00060A0801F700D700070A35
:1035D0000800F700E000060A0801F700E800060A04
:1035E0000801F700F000060A0801F700F800070AD2
:1035F0000800F7000101060A0801F7000901050AA1
:103600000801F7001001060D0801F7001A01060A6B
:103610000801F7002201060A0801F7002A01070A3B
:103620000800F7003301060A0801F7003B01070A0A
:103630000800F7004401060A0801F7004C01070DD5
:103640000800F7005801060A0801F7006001070AA0
:103650000800F7006901070A0800F7007201060A6E
:103660000801F7007A01070A0800F7008301070A3A
:103670000800F7008C01070A0800F7009501070A07
:103680000800F7009E01070A0800F700A701040DD3
:103690000802F700AE01070D0800F700BA01040D9B
:1036A0000802F700C10105030802F700C301070182
:1036B00008000000C40102040802F700C501070762
:1036C0000800FA00CC01070A0801F700D501070736
:1036D0000800FA00DC01060A0801F700E401070708
:1036E0000800FA00EB01070A0800F700F401070AD6
:1036F0000800FA00FD01060A0801F7000502070AA2
:103700000800F7000E02060D0801F7001802060A6D
:103710000801F7002002050A0802F7002702070740
:103720000800FA002E0206070801FA003402070713
:103730000800FA003B02060A0801FA004302060AE2
:103740000801FA004B0206070801FA0051020607B9
:103750000801FA005702070A0800F700600206078E
:103760000801FA00660207070800FA006D02070761
:103770000800FA00740207070800FA007B02060A34
:103780000801FA00830207070800FA008A02040D04
:103790000802F7009102010D0803F7009302040DDF
:1037A0000802F7009A0204020802FD00FF40559A41
:1037B000448BFA2448917F44881021F6B9121E0ADE
:1037C00012275BE10200632A54C7038CA9531871C6
:1037D0001224471C2444CCE45A69492491268912B6
:1037E00049252810A8E7F38A8400102047F1020435
:1037F0000058F08002081040820410208106080062
:10380000388A0C9830511C10CD0410411F7B384170
:1038100008463FFC231CCC1063780830E144893F04
:1038200084087E083E8C1063780E6183CC5060C1A2
:103830004470FE081041820C10407228A27B38614F
:10384000CDE0388A0C18288F0CE0824005800218E1
:10385000C606030180FE0007F080C06030C630005D
:103860007D8E0833C81A08002038896DBA346D2E51
:1038700046781020E142899F228704FA1861FA38BD
:10388000618FE03CCD04081020206678E268A186B4
:1038900018629B80FE082083F82083F0FE082083B6
:1038A000F82082003CCD04081060A166788618617B
:1038B00087F8618610F90842108427C0FC10410483
:1038C0001041041062708639ACE38B248A108208A0
:1038D0002082082083F04499B366CEA549830487EB
:1038E0001C79A6D9678E10388B1C183060E34470A1
:1038F000FA38618FE8208200388B1C183060E3545E
:1039000070404060FA38618FEA248A10798A06078D
:1039100080C08186F0FE20408102040810208618B5
:1039200061861861CDE083051224450A14102083B6
:10393000060CA54E9B366CD083891143020A26459E
:1039400004838911430204081020FE081041020874
:103950002041FCF88888888888F081810302060469
:10396000080810102020F11111111111F022A4FEED
:10397000A57C8DFE3838DF80810205CC5060C144C3
:10398000703C860408084F0004105D4E18614DF02D
:10399000388E1CCE08CF001C4D07C4081020408074
:1039A0003E89122380C0C1C67082083ECE1861864F
:1039B0001010000781020408103C04000F0410419D
:1039C000041062708208218ACC2C9A10842108424B
:1039D00010CBC0ED264C99326480FB3861861840CC
:1039E000388A0C18288E00BB2861872FA0820075AA
:1039F00038618537C10410BB182082080039240EB5
:103A0000061780408107C4081020627886186187F5
:103A1000378083891342860400832552A7CD0A008C
:103A20008288A08288A0808618618737C1CDE0FE99
:103A3000082082083F8034444484444430FFF884A2
:103A4000444436444480F300000000000A000100B2
:103A50000000040E0601F40007000B060E00F4003F
:103A600010000B0B0D00F50020000B100D00F300F3
:103A700036000D0E1102F4004D000D0E1001F40081
:103A8000640005040701F400670006100901F30053
:103A9000730006100901F3007F000C0B0D00F3000A
:103AA00090000C0C0F01F500A20005070700FF00B5
:103AB000A70007020A01FA00A90005030700FF009A
:103AC000AB000D0E1101F400C2000B0E0D00F4004E
:103AD000D600040E0700F400DD000B0E0D00F4000C
:103AE000F1000B0E0D00F40005010D0E0F00F400A7
:103AF0001C010B0E0D00F40030010B0E0D00F40044
:103B000044010B0E0D00F40058010B0E0D00F400E3
:103B10006C010B0E0D00F4008001050B0701F7008E
:103B20008701050F0701F70091010B0E0E01F4004C
:103B3000A50109060E02F800AC010B0E0E01F400FF
:103B4000C0010B0E0D00F400D4010E0E1100F400A4
:103B5000ED010B0E0D00F40001020B0E0E00F4003F
:103B600015020B0E0E01F40029020B0E0E00F400DC
:103B70003D02090E0C01F4004D02090E0B00F40089
:103B80005D020B0E0E01F40071020B0E0E01F4002B
:103B90008502050E0701F4008E020B0E0D00F400E5
:103BA000A2020B0E0D00F400B602090E0C00F40088
:103BB000C602100E1300F400E2020B0E0D00F4001A
:103BC000F6020B0E0D00F4000A03090E0B00F400C0
:103BD0001A030B0E0D00F4002E030B0E0D00F40063
:103BE00042030B0E0D00F4005603090E0B00F40007
:103BF00066030B0E0D00F4007A030B0E0D00F400AB
:103C00008E03100E1200F400AA030B0E0D00F40038
:103C1000BE030B0E0D00F400D2030B0E0D00F400DA
:103C2000E60305150801F100F4030D0E1101F4007F
:103C30000B0405150801F100190406040800F3003F
:103C40001C040D010D0001001E0405040801F30011
:103C50002104090B0B00F7002E04090E0B00F400E1
:103C60003E04090B0B00F7004B040A0E0B00F40096
:103C70005D04090B0B00F7006A04070E0800F4004E
:103C8000770409100B00F7008904090E0B00F400FB
:103C90009904030E0500F4009F0404130500F400CA
:103CA000A904090E0B00F400B904050E0600F40087
:103CB000C204100B1200F700D804090B0B00F70028
:103CC000E504090B0B00F700F2040A100B00F700E3
:103CD000060509100B00F7001805080B0900F7008E
:103CE0002305090B0B00F7003005070E0800F40050
:103CF0003D05090B0B00F7004A05090B0B00F70007
:103D00005705100B1200F7006D05090B0B00F700AB
:103D10007A0509100B00F7008C05090B0B00F70062
:103D2000990506100901F300A50502100803F30028
:103D3000A90507100900F300B70509030C01F400F9
:103D4000EEEEFFFFF00FFFFBFF7FEF8C318630C000
:103D5000318633FFFFF318630C67FFFFE630C600C0
:103D60000600C3FFFFFE07C03807FFFFE07C0FE13E
:103D7000FFFFFFC18030F81FC0FE06003001800F3A
:103D8000FFFFFFF807C03E01F1FF8FFC7C3F01F809
:103D90000E1870C7FFFFFFE19F0CF867C33E19F0D4
:103DA000CFFE7FF0FFFE30FFFE38E38F3EFBEFBE1D
:103DB000FBEFFFFFF1C71C77DF7DF7DF7DFFFFE63D
:103DC0007E67E677FE7FEE67E67E670600600600A8
:103DD000060060060060060FFFFFF0600600600648
:103DE0000060FFFE318C60FFFCFFFE001800C00683
:103DF000003001800FFFFFFFF807C03E01F00F8089
:103E00007C00FFFFFF03E07C0F83F07E0FC1F83FD3
:103E100007E0FFFFFFC07777FFFFFFFFFFFFFFFF18
:103E200003E07C0E01C03807FFFFFFE07C3FFFFF8F
:103E3000C0FF9FF30E01C3FC7FC0F81F03F87F0F84
:103E4000E1FFFFFFC0FFE7FF303981CC0E60730355
:103E5000981CFFFFFFC0F807C03E01F0FFFFFF8086
:103E6000700FFFFFC0780F01F83F07E0FFFFFFC0B2
:103E7000FFFFFF03E00FFFFFF0FE1FC3F87F0FE11E
:103E8000FFFFFFC0FFFFFF0380700E07C0F81F0396
:103E9000E07C0F81F03E07C03F87F0CE19C7FDFFE1
:103EA000F0FE1FC3F87F0FE1FFFFFFC0FFFFFF031E
:103EB000E07C0F81F03E07FFFFFC0F81F03E07C062
:103EC000FFFE000000FFFEFFFE000000FFFE318C41
:103ED0006003E0F83E0F83E0F83E07C07C07C07C3B
:103EE00007C07C07C0FFFFC0000FFFFCF80F80F881
:103EF0000F80F80F80F81F07C1F07C1F07C1F0008A
:103F0000FFFFFF038073FE7FCF81F03E0000001FA4
:103F100003E07C00FFFFFFFC00F1FBC7EF19BE666A
:103F2000F99BE66F9FFE7FF800FFFFFFF03F87F0F1
:103F3000E61CC7FDFFFE1FC3F87F0FE1FC3F87F0C3
:103F4000C0FF9C338670CFFDFFFE1FC3F87F0FE1DB
:103F5000FC3FFFFFC0FFFFFF81F00E01F03E07C0F6
:103F6000F81F03E07C3FFFFFC0FFFFFF81F03E072B
:103F7000F0FE1FC3F87F0FE1FC3FFFFFC0FFFFF81B
:103F80001C0FFFFFE1F0F87C3E1F0FFFFCFFFFF866
:103F90001C0FFFFFC1E0F0783C1E0F0780FFFFFF02
:103FA00081F00E3DE7FE1FC3F87F0FE1FC3FFFFFEE
:103FB000C0E07C0F81F03FFFFFFE1FC3F87F0FE1E1
:103FC000FC3F87F0C0E739CF7FFFFFFFFFF803809A
:103FD000700E01C03C07C0F81F03F87F0FE1FFFF20
:103FE000FFC0E19C338670CFFDFFFE1FC3F87F0F3B
:103FF000E1FC3F87F0C0E070381C0F07C3E1F0F828
:104000007C3E1F0FFFFCFFFFFFFFE187E187E18799
:10401000F987F987F987F987F987F987F987F987A0
:10402000F987FFFFFF81F03E07F0FE1FC3F87F0F07
:10403000E1FC3F87F0C0FFFFFF0FE1FC1F81F03E76
:1040400007C0F81F03E07FFFFFC0FFFFF87C3FFFC2
:10405000FFE1F0F87C3E1F0F87C0FFFFFF03E07C0D
:104060000F81F03E07C0F8FF1FE3FFFFFFC0FF9F77
:10407000F38670CFFDFFFE1FC3F87F0FE1FC3F8783
:10408000F0C0FFFFFF81F00FFFFFC0F81F03E07CCF
:104090000FE1FFFFFFC0FFFFC70381C0F07C3E1FA1
:1040A0000F87C3E1F0F0E07C0F81F03F07F0FE1FC7
:1040B000C3F87F0FE1FC3FFFFFC0F87F0FE1FC3F3B
:1040C00087F0FE1FC7F9EF38E61CC3F87F00E187D1
:1040D000E187E187E187F187F987F987F987F98730
:1040E000F987F987F987FFFFFFFFE07C0F81F03F39
:1040F000FFFFBE1FC3F87F0FE1FC3F87F0C0C07811
:104100000F01E03FFFFFC7C0F81F03E07C0F81F005
:104110003E00FFFFFF0F0783E1F03E07C0F81F0FCF
:10412000E1FC3FFFFFC0FFF18C6318C6318C6318C0
:10413000C631FF80C006003001800C006003FFFF25
:10414000FF00F807C03E01F00F807CFFC6318C6392
:1041500018C6318C6318C7FF80FFFCF3FFF8FFC659
:1041600030FF7FB0C06037FFFFC7E3FFFFE0E070C4
:10417000381FFFFF0F87E3F9FCFE7F3FFFFCFFFFC7
:10418000F87C0F07C3E1F0F9FFFFE001C0701DFFED
:10419000FFF07C1F0FC7F1FC7F1FFFFFF0FFFFF850
:1041A0007C3E1FFFFFF0F9FFFFE03E7CC7FFE70EFC
:1041B0001C3E7CF9F3E7C0FFFFF87C3F1FCFE7F31D
:1041C000F9FFFFE030180FFFFFE070381FFFFF0F0F
:1041D00087C3F9FCFE7F3F9FCCD86DB7FFFFC06659
:1041E000066666777777333FF0E070381C6E371BD2
:1041F0008DC6FFFFFC7E3F1F8CE739CE739EFFFF0D
:10420000FFF8FFFFFFFFE183E183E183F9E3F9E3D7
:10421000F9E3F9E3F9E3F9E3FFFFF87C3E1FCFE7A9
:10422000F3F9FCFE60FFFFF87C3F1FCFE7F3F9FFD7
:10423000FFE0FFFFFE0F83F0FE3F8FE3F8FFFFFF7D
:1042400000C0300C0300FFFFF87C3F1FCFE7F3F9FD
:10425000FFFFE030180C0603FFFFE0E0E0F8F8F89D
:10426000F8F8F8FFFFF87C0E07FFFE0FC7FFFFE02E
:104270003060C7FFE70E1C3E7CF9F3E7C0E1F0F8C1
:104280007C3F1FCFE7F3F9FFFFE0F9FCFE7F3F9F84
:10429000CDEE773B1F8FC0E183E183E183E183F1C2
:1042A000C3F9E3F9E3F9E3F9E3FFFFFFFFE1F0F816
:1042B0007C3E1FFFFFF3F9FCFE60F1F8FC7E3F1F20
:1042C0008F87C3E1FFFFE030180FFFFFFFFFF1E131
:1042D000C3C783C1E0F1FFFFE03CE38E38E3BEF8E3
:1042E000E38E38E38FFFFFFFFFF870E1C3870E1FF7
:1042F0003E70E1C3870E7CF9FFF3E0000000000090
:1043000000000000000000000000000000000000AD
:10431000000000000000000000000000000000009D
:10432000000000000000000000000000000000008D
:10433000000000000000000000000000000000007D
:10434000000000000000000000000000000000006D
:10435000000000000000000000000000232D302BB2
:104360002000686C4C006566674546470030313276
:1043700033343536373839414243444546003031CD
:10438000323334353637383961626364656600002C
:10439000F8B5C046F8BC08BC9E467047DD0000007A
:1043A000F8B5C046F8BC08BC9E467047B500000092
:1043B000FF000001010000000C00002000000000D0
:1043C0001C4300003C430000FC42000000000000D1
:1043D00000000000000000000000000000000000DD
:1043E00000000000000000000000000000000000CD
:1043F00000000000000000000000000000000000BD
:1044000000000000000000000000000000000000AC
:0C441000000000000000000000000000A0
:00000001FF
